S01B0000415050535F454E444445564943455F4E4F44452E737265636A
S21400000070400020F16000008561000085610000FE
S21400001000000000000000000000000000000000DB
S21400002000000000000000000000000085610000E5
S21400003000000000000000008561000085610000EF
S2140000408561000085610000612900009D140000A4
S2140000508561000085610000856100008561000003
S214000060FD2F0000153000002D3000004530000048
S2140000705D3000007530000085610000856100007D
S214000080856100005D58000071580000855800002A
S21400009099580000AD580000E50E0000856100008C
S2140000A085610000856100008561000085610000B3
S2140000B00000000010B5064C2378002B07D1054B36
S2140000C0002B02D0044800E000BF0123237010BDBF
S2140000D0980B00200000000004D50200084B10B565
S2140000E0002B03D00749084800E000BF0748036814
S2140000F0002B00D110BD064B002BFBD09847F9E72C
S214000100000000009C0B002004D5020004D502006D
S2140001100000000080B582B000AF78607B68002BDE
S2140001200CD0084B7A685A60064B00229A60C0468C
S214000130044B1A6880235B021340F9D0C046BD46C4
S21400014002B080BD10E000E080B500AF00200F4B8D
S214000150984702000E4B1A600D4B18680D4BFA229A
S2140001609100984703001A00094B1A60084B18685C
S214000170084BFA229100984703001A00064B1A60B3
S214000180064B05221A60C046BD4680BDED530000F2
S21400019000000020691002000400002010E000E0CB
S2140001A080B582B000AF786004E0074B1B6818008B
S2140001B0064B98477B685A1E7A60002BF5D1C046DE
S2140001C0BD4602B080BDC0460400002015010000F8
S2140001D080B582B000AF786004E0074B1B6818005B
S2140001E0064B98477B685A1E7A60002BF5D1C046AE
S2140001F0BD4602B080BDC0460000002015010000CC
S21400020080B582B000AF104B1B68002B12D1EFF305
S21400021010837B607B68002B09D172B6BFF35F8FBB
S2140002200A4B00221A700A4B01221A7002E0084B91
S21400023000221A70044B1B685A1C034B1A60C046F7
S214000240BD4602B080BDC046B40B002008000020AA
S214000250B80B002080B500AF0B4B1B685A1E0A4B2C
S2140002601A60094B1B68002B0AD1084B1B78DBB2BF
S214000270002B05D0064B01221A70BFF35F8F62B6C3
S214000280C046BD4680BDC046B40B0020B80B00205B
S2140002900800002080B584B000AF0200FB1D1A7075
S2140002A00F23FB18FA1D1278D2091A700E23FB18BA
S2140002B0FA1D127852091A700D4BBB600F23FB18FB
S2140002C01B78002B0FD10F23FB181B789B001022E6
S2140002D09446BC446344083B1A680E23FB181B78FC
S2140002E0DB01D31800E000231800BD4604B080BD33
S2140002F00028004080B582B000AF0200FB1D1A70D7
S214000300FB1D1B781800034B984703001800BD46DA
S21400031002B080BD9502000080B582B000AF786064
S2140003207B6800221A707B6801225A707B68002264
S2140003309A70C046BD4602B080BD000080B584B04D
S21400034000AF0200FB1D1A70BB1D0A1C1A70FB1DB5
S2140003501B7818000D4B98470300FB60FB1D1B78AD
S2140003601F22134001229A401300BB60BB1D1B785E
S214000370002B03D0FB68BA689A6102E0FB68BA6893
S2140003805A61C046BD4604B080BDC046F5020000B6
S21400039080B582B000AF3B1D1800204B98473B1D30
S2140003A001221A703B1D190013201D4B984701218E
S2140003B013201C4B98473B1D01221A703B1D190049
S2140003C01220174B984701211220164B98473B1DC9
S2140003D001221A703B1D19000D20114B9847002171
S2140003E00D20104B98473B1D01221A703B1D19002B
S2140003F009200B4B9847002109200A4B98473B1DC4
S21400040000221A703B1D01225A703B1D19001C2049
S214000410034B9847C046BD4602B080BD1903000096
S214000420F52000003D03000080B582B000AF786084
S2140004307B6800221A70C046BD4602B080BD000030
S21400044080B582B000AF02003960FB1D1A70FB1D3C
S2140004501B78042B27D89A00164BD3181B689F4688
S214000460154B154A51693A680A435A611DE0124B0A
S214000470114A91693A680A439A6116E00E4B0E4A91
S214000480D1693A680A43DA610FE00B4B0A4A116AEF
S2140004903A680A431A6208E0074B074A516A3A6804
S2140004A00A435A6201E0172300E000231800BD4605
S2140004B002B080BD2CA902000004004080B582B0C6
S2140004C000AF78607B6880221A707B6800225A70C2
S2140004D07B6801229A707B680022DA70C046BD46AF
S2140004E002B080BD80B582B000AF0200FB1D1A705E
S2140004F0FB1D1B78002B02D0012B07D00DE0084B0C
S214000500074AD26902210A43DA6106E0044B044A2C
S214000510D26904210A43DA61C046BD4602B080BDF6
S2140005200014004080B584B000AF78607B681B681C
S214000530FB60FB681B8C9BB2002B01D0012300E004
S21400054000231800BD4604B080BD000080B584B00E
S21400055000AF78600E4BBB600023FB6010E0FB68CA
S2140005609B0010229446BC446344083B1A687B6890
S2140005709A4202D1FB68DBB206E0FB680133FB60FF
S214000580FB68002BEBD000231800BD4604B080BDEE
S214000590000C004380B582B000AF78607B68002214
S2140005A01A707B6800225A707B6800229A707B68FB
S2140005B00022DA707B6800221A837B6800221A62A7
S2140005C07B680022DA617B6806221A717B68C0228B
S2140005D05201DA807B6800221A727B6800225A7207
S2140005E07B6800229A727B680022DA727B6800229F
S2140005F01A737B682A22002199547B6800225A735A
S2140006007B6800229A737B680022DA737B6800227C
S2140006101A617B6800221A757B682422002199548F
S2140006207B680022DA847B6800221A857B680022B9
S2140006305A75C046BD4602B080BD000080B59AB06F
S21400064000AF02003960FB1D1A700C23FA18164B17
S2140006501000190058231A00144B9847144B7B6659
S21400066013223B689A421AD30C23FB183A6892006E
S214000670D3587B660823FB1818000E4B98470823B0
S214000680FB1800229A700823FB1801221A707B6E52
S214000690DBB20822BA1811001800074B9847C0466C
S2140006A0BD461AB080BDC04640A9020049410200BE
S2140006B0FFFF0000BD0400006157000080B58AB04F
S2140006C000AFB9607A600F23FB18021C1A7027234C
S2140006D0FB1800221A7010233B621F23FB1800220F
S2140006E01A70BB681B68BB611423FB181800C54B47
S2140006F098477B681A781423FB181A701E22142356
S214000700FB1819001000C04B98471E231800BF4B5B
S21400071098477B681B791A000F23FB181B7811007B
S2140007201800BB4B98477B68DB881A000F23FB1822
S2140007301B7811001800B64B98471E23FB180022A2
S2140007401A701AE07B681B691E22BA1812780121FB
S21400075091400A00134009D01E23FB181A780F2375
S214000760FB181B7811001800A94B98471E23FB188E
S2140007701A781E23FB1801321A701E23FB181B78EA
S21400078013229342DED97B685B7B9B015AB27B685F
S2140007909B7BDB015BB213435BB2DAB2BB691A70B8
S2140007A07B681B7DDB015AB27B685B785BB21343C8
S2140007B05BB2DAB2BB699A707B68DB78342B46D8BA
S2140007C09A00944BD3181B689F462723FB187A6819
S2140007D0527A1A701F23FB187A68127A1A7010233E
S2140007E03B6236E02723FB1801221A701F23FB18F2
S2140007F002221A7010233B622BE02723FB180222EA
S2140008001A701F23FB1804221A7010233B6220E084
S2140008102723FB1801221A701F23FB1806221A70C2
S21400082010233B6215E02723FB1800221A701F23B3
S214000830FB1808221A7010233B620AE030233B6242
S21400084007E020233B6204E000233B6201E017231D
S214000850A7E12723FB181B781B01DBB2702213408D
S214000860DAB21F23FB181B781343DAB2BB691A737C
S214000870C046BB681800684B9847031EF9D17B68D2
S2140008805B7D3F2B01D917238BE17B685B7D5AB2DA
S2140008907B68DB7BDB015BB213435BB2DAB2BB691E
S2140008A05A73C046BB6818005B4B9847031EF9D1C5
S2140008B07B689A78BB695A707B6824229B5C9BB2E3
S2140008C0DB009AB23B6A9BB213439AB27B681B7BEF
S2140008D09BB29B009BB213439AB27B689B7A9BB2F7
S2140008E0DB189BB213439AB27B68DB7A9BB2134346
S2140008F09AB2BB695A81C046BB681800464B9847F7
S214000900031EF9D17B681B8B002B00D1BFE03B6A2E
S214000910102B00D18EE002D8002B4DD0B7E0202B54
S21400092023D0302B00D0B2E07B68DB7A002B11D0CE
S2140009307B68DB697F2B0BDC7B68DB69803307DB3E
S2140009407B681B6A7F2B03DC7B681B6A803301DABB
S214000950172326E17B68DB69FF2B04DC7B681B6AB8
S214000960FF2B00DC8CE017231BE17B68DB7A002B77
S21400097015D07B68DB69294A93420EDC7B68DB690D
S214000980274A934209DB7B681B6A244A934204DCAD
S2140009907B681B6A224A934201DA172301E17B68CF
S2140009A0DB69204A934205DC7B681B6A1D4A93423A
S2140009B000DC67E01723F4E07B68DB7A002B15D0B9
S2140009C07B68DB69184A93420EDC7B68DB69174A52
S2140009D0934209DB7B681B6A134A934204DC7B68FC
S2140009E01B6A124A934201DA1723DAE07B68DB6956
S2140009F00F4A934204DC7B681B6A0D4A934243DD30
S214000A001723CEE029040000AD540000ED5400008A
S214000A103D06000098A9020025050000FF01000021
S214000A2000FEFFFFFF030000FF07000000F8FFFFC7
S214000A30FF0F00007B68DB7A002B15D07B68DB6934
S214000A405A4A93420EDC7B68DB69594A934209DBBB
S214000A507B681B6A554A934204DC7B681B6A544ACF
S214000A60934201DA17239CE07B68DB69514A934284
S214000A7004DC7B681B6A4F4A934207DD172390E02D
S214000A80C04604E0C04602E0C04600E0C046BB697F
S214000A905B899AB27B681B8B13439AB2BB695A81F7
S214000AA0C046BB681800444B9847031EF9D17B68C4
S214000AB0DB699AB2BB69DA81C046BB6818003E4B58
S214000AC09847031EF9D17B681B6A9AB2BB691A82E3
S214000AD0C046BB681800384B9847031EF9D17B68A0
S214000AE0DA887B681B799BB213439AB2BB691A817A
S214000AF0C046BB681800304B9847031EF9D17B6888
S214000B002A229A5CBB69DA70BB6907221A717B6875
S214000B1024229B5C002B2CD07B68DB8C274A9342DC
S214000B2001D917233DE07B68DA8CBB695A82C04640
S214000B30BB681800204B9847031EF9D17B68282213
S214000B409B5E1F4A934205DC7B6828229B5E1D4AFB
S214000B50934201DA172324E07B6828229B5E9AB230
S214000B60BB699A82C046BB681800134B9847031EA1
S214000B70F9D1154B1B680022D3409BB21B029AB2D8
S214000B80E023DB0013409AB20F4B1B680321CB40D7
S214000B909BB207210B409BB213439AB2BB699A855E
S214000BA000231800BD460AB080BDC046FF7F000087
S214000BB00080FFFFFFFF000025050000FF0F00007C
S214000BC0FF07000000F8FFFF2060800090B587B0A8
S214000BD000AFF860B9607A601623FC18BB6818008E
S214000BE03D4B984703002370FB68BA681A600821DB
S214000BF003203A4B9847BB681B78DBB21A000123E8
S214000C00134001D0052362E0C046FB681800344B51
S214000C109847031EF9D1BB681B78DBB21A00022383
S214000C20134001D01C2352E07B685A78FB681A7187
S214000C30FB681B79002B02D101202A4B984717230B
S214000C40FB1800221A700EE01723FB181A78FB68B0
S214000C50023292000021D1501723FB181A7817236E
S214000C60FB1801321A701723FB181B78022BEBD9DE
S214000C70FB6800229A76FB680022DA76FB68002280
S214000C801A83FB6800221A771623FB181A78164B6D
S214000C909200F968D1507B682A229B5C002B0AD10F
S214000CA07B681B7B01225340DBB2002B03D0FB6822
S214000CB001225A7702E0FB6800225A777A68F968C0
S214000CC01623FB181B781800084B984703001800DB
S214000CD0BD4607B090BDC0464D050000410400006B
S214000CE025050000E5040000C4110020BD06000034
S214000CF080B584B000AF78607B681B68FB60FB68DB
S214000D001B8C9BB2002B01D0012300E000231800AF
S214000D10BD4604B080BD000080B584B000AF7860EA
S214000D207B681B68FB60C0467B6818000B4B9847C7
S214000D30031EF9D1FB681B7EDBB202221343DAB234
S214000D40FB681A76C0467B681800044B9847031E5B
S214000D50F9D1C046BD4604B080BDC046F10C0000C7
S214000D6080B584B000AF78600A00FB1C1A707B6800
S214000D701B68FB60FB68FA1C12785A71C046BD46B9
S214000D8004B080BD80B584B000AF78600A00FB1C5C
S214000D901A707B681B68FB60FB68FA1C12781A7175
S214000DA0C046BD4604B080BD80B584B000AF02002A
S214000DB0FB1D1A70FB1D1A78474B9200D358FB6038
S214000DC0FB681B689B79DAB2FB681B685B79DBB251
S214000DD01340DBB2BB60BB680122134045D0FB6802
S214000DE01B6801229A71FB685B69991CFA6851615D
S214000DF0FA681268928C92B21A80FB681B8B9BB2C0
S214000E00013B9BB2FA68191C1183002B0FD0FB68BC
S214000E105B7F002B29D0FB681B68DB79DBB25BB2FB
S214000E20002B22DBFB6818002C4B98471DE0FB6864
S214000E30012118002A4B9847FB681B7FDBB2052B65
S214000E4013D1FB6800221A77FB68DB7E1A000123A9
S214000E5013400AD0FB689B7E1A000123134004D07F
S214000E60FB689B68FA6810009847BB68042213402A
S214000E7014D0FB681B6804229A71FB68DB7E1A009C
S214000E80022313400AD0FB689B7E1A0002231340FD
S214000E9004D0FB68DB68FA6810009847BB6802223B
S214000EA0134014D0FB681B6802229A71FB68DB7E35
S214000EB01A00042313400AD0FB689B7E1A00042302
S214000EC0134004D0FB681B69FA6810009847C046B8
S214000ED0BD4604B080BDC046C4110020190D0000F8
S214000EE0850D000080B500AF0020024B9847C04635
S214000EF0BD4680BDA90D000080B584B000AFF86087
S214000F00B960BB1D1A80FB681B8B9BB2002B04D1FB
S214000F10FB681B7FDBB2052B01D1052317E0FB68BE
S214000F2005221A77FB68BA1D12881A83FB68BA680E
S214000F305A61FB6801211800074B9847FB685B7FE6
S214000F40002B03D0FB681800044B984700231800BA
S214000F50BD4604B080BDC046610D0000190D0000FE
S214000F6080B582B000AF78600A00FB1C1A70FB1CCC
S214000F701B78002B03D17B681B7FDBB200E01723B6
S214000F801800BD4602B080BD80B582B000AF02003A
S214000F903960FB1D1A70FB1D1B78042B27D89A009E
S214000FA0164BD3181B689F46154B154A51693A686D
S214000FB00A435A611DE0124B114A91693A680A4386
S214000FC09A6116E00E4B0E4AD1693A680A43DA6116
S214000FD00FE00B4B0A4A116A3A680A431A6208E0A5
S214000FE0074B074A516A3A680A435A6201E01723D8
S214000FF000E000231800BD4602B080BD6CAA0200C7
S2140010000004004080B582B000AF78607B680122A3
S2140010101A707B6800225A707B6800229A707B6880
S2140010200022DA707B6800221A717B680F225A71E0
S2140010307B6800229A717B680022DA717B68002246
S2140010401A72C046BD4602B080BD000080B584B0AE
S21400105000AFF860B9607A6080239B011900022017
S214001060074B9847BB6801221A607A68B968FB6824
S2140010701800044B9847C046BD4604B080BDC04625
S214001080890F0000D910000080B582B000AF7860EC
S2140010907B681B687A681268126802210A431A6025
S2140010A0C046BD4602B080BD80B582B000AF786055
S2140010B07B681B6803225A717B681B680322DA71FF
S2140010C07B681B687A681268126802218A431A6075
S2140010D0C046BD4602B080BD80B586B000AFF860A1
S2140010E0B9607A6000237B617B68DA78FB681A71E6
S2140010F0FB68BA681A607B685A78FB685A717B6826
S2140011001A79FB689A717B681B789A027B689B78D1
S214001110DB021A437B685B781B021A437B68DB782A
S2140011209B001A437B681B795B0113431A007B689C
S2140011305B791B041900F0231B030B4013437A68EA
S2140011409279920313437A68D279520313437A68EA
S214001150127A120313437A6913437B61BB681B68D8
S214001160022213400BD0FB681800084B9847BB6858
S2140011707A691A60FB681800054B984702E0BB685E
S2140011807A691A60C046BD4606B080BDA910000048
S2140011908910000080B584B000AF78603960002305
S2140011A0BB607B685B79012B07D0022B08D0002B35
S2140011B000D008E00423BB6005E00623BB6002E025
S2140011C00823BB60C0460023FB600FE07B681968FD
S2140011D03B681A68FB6802339B00CB1804331A601E
S2140011E03B6804333B60FB680133FB60FA68BB680E
S2140011F09A42EBD3C046BD4604B080BD80B584B0ED
S21400120000AF786039607B681B6800221A727B68C2
S2140012101B79032B15D17B689B79012B11D10023F9
S214001220FB600AE07B681B683A6812689A633B6852
S21400123004333B60FB680133FB60FB68012BF1D98C
S21400124022E07B681B79032B0DD17B689B79022BF0
S21400125003D07B689B79032B05D17B681B683A68B3
S21400126012689A6310E00023FB600AE07B681B6844
S2140012703A6812689A633B6804333B60FB68013344
S214001280FB60FB68032BF1D9C046BD4604B080BDA9
S21400129080B584B000AF786039607B681B68002238
S2140012A01A727B681B79032B15D17B689B79012BFF
S2140012B011D10023FB600AE07B681B689A6B3B68D1
S2140012C01A603B6804333B60FB680133FB60FB68D5
S2140012D0012BF1D922E07B681B79032B0DD17B68AB
S2140012E09B79022B03D07B689B79032B05D17B6807
S2140012F01B689A6B3B681A6010E00023FB600AE0EC
S2140013007B681B689A6B3B681A603B6804333B60DB
S214001310FB680133FB60FB68032BF1D9C046BD4672
S21400132004B080BD80B584B000AF0200FB1D1A700B
S2140013300F23FB18FA1D127852091A700F23FB1898
S2140013401B78002B0CD1094BBB600F23FB181B78B6
S2140013509B0010229446BC446344083B1B6800E094
S21400136000231800BD4604B080BDC04600240040DF
S21400137080B584B000AF0200FB1D1A70FB1D1B7801
S21400138018000B4B98470300FB60FB1D1B781F22C1
S214001390134001229A401300BB60FB685B69BA6881
S2140013A013405A1E9341DBB21800BD4604B080BD00
S2140013B02513000080B584B000AF0200FB1D1A7034
S2140013C0FB1D1B781800094B98470300FB60FB1DAC
S2140013D01B781F22134001229A401300BB60FB6853
S2140013E0BA685A61C046BD4604B080BD25130000E9
S2140013F080B582B000AF786008001100FB1C021CAC
S2140014001A70BB1C0A1C1A70BB1C1B78002B01D060
S214001410172319E0FB1C1A780D4B9200D358002BAB
S21400142007D1FB1C1A780A4B92007968D15000232A
S2140014300AE0FB1C1A78064B9200D2587B689A4248
S21400144001D1002300E01D231800BD4602B080BD78
S214001450CC11002080B584B000AF0200FB1D1A70CE
S214001460BB1D0A1C1A70BB1D1B78002B0ED1FB1D62
S2140014701B781800084B98470300FB60FB1D1B7881
S21400148001229A40FB681A61002300E01723180027
S214001490BD4604B080BDC0462513000080B500AF31
S2140014A0154B00221A7020E0134B1B781800134BC4
S2140014B09847031E13D0104B1B781800104B984704
S2140014C00D4B1B781A000F4B9200D358002B06D0FA
S2140014D0094B1B781A000B4B9200D3589847064BC3
S2140014E01B780133DAB2044B1A70034B1B780F2BB0
S2140014F0DAD9C046BD4680BDC81100207113000071
S214001500B5130000CC11002080B582B000AF0200F9
S2140015103960FB1D1A70FB1D1B78042B27D89A0018
S214001520164BD3181B689F46154B154A51693A68E7
S2140015300A435A611DE0124B114A91693A680A4300
S2140015409A6116E00E4B0E4AD1693A680A43DA6190
S2140015500FE00B4B0A4A116A3A680A431A6208E01F
S214001560074B074A516A3A680A435A6201E0172352
S21400157000E000231800BD4602B080BD80AA02002D
S2140015800004004080B582B000AF78607B6880229F
S2140015901A707B6800225A707B6801229A707B68FA
S2140015A00022DA70C046BD4602B080BD80B582B06B
S2140015B000AF0200FB1D1A70064BFA1D12781100D0
S2140015C01F220A40012191400A001A60C046BD460B
S2140015D002B080BD00E100E080B584B000AF02003C
S2140015E0FB1D1A700F23FB18FA1D127852091A7089
S2140015F00F23FB181B78002B0CD1094BBB600F2365
S214001600FB181B789B0010229446BC446344083B9E
S2140016101B6800E000231800BD4604B080BDC0462D
S2140016200024004080B582B000AF154B3B6000231D
S2140016307B601CE07B689B0008229446BC446344A5
S214001640083B1B685B68022213400BD17B689B003B
S21400165008229446BC446344083B1B685B6801222E
S214001660134001D0012306E07B6801337B607B6872
S214001670002BDFD000231800BD4602B080BDC04658
S2140016800024004080B584B000AF2E4B3B60802322
S2140016909B00190000202C4B98470023FB6018E0A5
S2140016A0FB689B0010229446BC446344103B1A68B7
S2140016B0FB689B0010218C46BC446344103B1B68AF
S2140016C01B78DBB201210B43DBB21370FB680133DE
S2140016D0FB60FB68002BE3D0C0461C4B9847031EFC
S2140016E0FBD10023BB600EE0BB689B001022944633
S2140016F0BC446344103B1A68137810210B431370E4
S214001700BB680133BB60BB68002BEDD0FB1D00221D
S2140017101A700AE0FB1D1A780D4B92000021D1507A
S214001720FB1D1A78FB1D01321A70FB1D1B780F2B50
S214001730F0D90320074B9847074B9847C046BD464D
S21400174004B080BD002400400915000025160000E6
S214001750CC110020AD1500005D17000080B582B0EA
S21400176000AF154B3B6000237B6018E07B689B0056
S21400177008229446BC446344083B1A687B689B0076
S21400178008218C46BC446344083B1B681B78DBB2CC
S21400179002210B43DBB213707B6801337B607B68EE
S2140017A0002BE3D0C046054B9847031EFBD1C0462E
S2140017B0BD4602B080BDC04600240040251600008D
S2140017C080B582B000AF154B3B6000237B6018E00D
S2140017D07B689B0008229446BC446344083B1A6816
S2140017E07B689B0008218C46BC446344083B1B680E
S2140017F01B78DBB202218B43DBB213707B680133AC
S2140018007B607B68002BE3D0C046054B9847031EE1
S214001810FBD1C046BD4602B080BDC0460024004095
S2140018202516000080B582B000AF78607B68002285
S2140018301A607B6800225A607B6801221A727B68F5
S21400184000229A727B680222DA727B6800225A7241
S214001850C046BD4602B080BD80B586B000AF02006F
S2140018603960FB1D1A703C4B98470823FB1818007C
S2140018703A4B98473B685B68DAB20823FB181A7045
S2140018800823FB1800225A703B681A7A0823FB18B4
S2140018909A703B681B68DBB20822BA181100180061
S2140018A02F4B9847FB1D1B7818002E4B98470300BC
S2140018B03B61FB1D1B78072213409B00FB603B68C7
S2140018C0DB7A7B613B689B7A002B03D07B6908221E
S2140018D013437B61FB1D1B78DB08DBB21800FB1D86
S2140018E01B78DB08DBB23A6906339B00D318043357
S2140018F01B680F21FA6891400A00D2431A407969A2
S214001900FB6899400B001A433969831D9B00CB186E
S21400191004331A603B685B7A002B0AD03B699A69ED
S214001920FB1D1B78012199400B001A433B699A6105
S2140019300CE03B699B69FA1D1278012191400A0070
S214001940D24313401B041A0C3B699A61064B984716
S214001950C046BD4606B080BDC11700008515000014
S21400196061570000D91500005D17000080B582B0F1
S21400197000AF074B7B607B681B7DDBB21A00012340
S21400198013405A1E9341DBB21800BD4602B080BD1C
S2140019900040004180B582B000AF02003960FB1DF8
S2140019A01A70FB1D1B78042B27D89A00164BD318E9
S2140019B01B689F46154B154A51693A680A435A6197
S2140019C01DE0124B114A91693A680A439A6116E083
S2140019D00E4B0E4AD1693A680A43DA610FE00B4BA8
S2140019E00A4A116A3A680A431A6208E0074B074A2D
S2140019F0516A3A680A435A6201E0172300E000235E
S214001A001800BD4602B080BD94AA02000004004043
S214001A1080B584B000AF78602F4BFB6004210120B6
S214001A202E4B9847FB682022FF321A832C4B984790
S214001A3003001A0001235340DBB2002B01D005231C
S214001A4045E07B681B781B021A00C0239B001A40E7
S214001A507B685B78DB011900FF230B401A437B6829
S214001A609B785B0019001E230B401A437B68DB78CB
S214001A709B0419008023DB020B401A437B681B790A
S214001A801B041900C0239B020B401A43FB685A60D4
S214001A90FB689B685B035B0FDBB21A00082393406E
S214001AA09AB2104B1A80FB689B689AB20D4B5A800C
S214001AB07B685A780B4B1A71FB681B8B9BB21A001B
S214001AC080235B00134001D0102300E000231800A1
S214001AD0BD4604B080BDC0460040004195190000D8
S214001AE06D190000BC0B002080B586B000AFB96051
S214001AF07A600F23FB18021C1A704E4B1B881A00C4
S214001B004C4B5B885A43BB689A4211D2BB684A4A20
S214001B10934203D9BB68494A934209D9BB68484AED
S214001B20934203D8BB68474A934201D818237DE006
S214001B30454B7B617B695B683B613B698022D202D7
S214001B401A437B695A607B692022FF321A833F4B17
S214001B50984703001A0001235340DBB2002B04D041
S214001B607B693A695A60052360E00F23FB181B78EF
S214001B70452B1DD89A00364BD3181B689F467B69A9
S214001B801B8B9BB21A0080235B00134004D07B693A
S214001B903A695A60102349E0BB689B085A007B6983
S214001BA0DA610BE0BB689B085A007B69DA6105E0E6
S214001BB07B693A695A60172338E0C0460F23FB1842
S214001BC01B781A2B04D00F23FB181B781C2B07D16D
S214001BD07B695A688021C9020A435A607B695B6840
S214001BE00F23FB181B789BB21A4A13439AB27B69E1
S214001BF01A80C046154B984703001A00012353402D
S214001C00DBB2002BF6D10F23FB181B781A2B04D05F
S214001C100F23FB181B781C2B04D17B695A680E49CE
S214001C200A405A607B693A695A6000231800BD462C
S214001C3006B080BDBC0B0020FF3F80000060800027
S214001C40FF1F4000FFFF3F00004000416D190000ED
S214001C50A8AA020000A5FFFFFFFFFBFF80B588B023
S214001C6000AFF860B960BB1D1A801F23FB18002266
S214001C701A70564B1B881A00544B5B885A43FB68F5
S214001C809A420DD2FB68524A934203D8FB68514AE7
S214001C90934201D8182395E01F23FB1801221A70DF
S214001CA04A4B1B88013B1A00FB68134001D01823DF
S214001CB088E0464B1B88BA1D12889A4201D9172322
S214001CC080E0454B3B61454B984703001A000123D3
S214001CD05340DBB2002B01D0052373E03B69404A3A
S214001CE01A80C0463D4B984703001A000123534014
S214001CF0DBB2002BF6D13B692022FF321A83FB6849
S214001D005B08BB611623FB1800221A8032E01623FC
S214001D10FB181B88BA68D3181A781423FB181A8085
S214001D201623FB181A88BB1D1B88013B9A4211DA42
S214001D301623FB181B880133BA68D3181B781B02BE
S214001D401AB21423FB1800215B5E13431AB2142345
S214001D50FB181A80BB695A1CBA615B001A00142370
S214001D60FB181B8813801623FB181622BA18128835
S214001D7002321A801623FA18BB1D12881B889A4254
S214001D80C5D3124B1B7901225340DBB2002B18D06F
S214001D90BB1D1B883F2B14D81F23FB181B78002B5A
S214001DA007D0FB68002219001C200E4B9847030042
S214001DB008E0FB680022190004200A4B984703003D
S214001DC000E000231800BD4608B080BDBC0B002014
S214001DD0FF1F4000FFFF3F00004000416D1900005C
S214001DE044A5FFFFE91A000080B588B000AFF86090
S214001DF0B960BB1D1A803C4B1B881A003A4B5B88A7
S214001E005A43FB689A4209D2FB68384A934203D881
S214001E10FB68374A934201D8182360E0324B1B8890
S214001E20013B1A00FB68134001D0182357E02E4BE5
S214001E301B88BA1D12889A4201D917234FE02D4BF2
S214001E407B612D4B984703001A0001235340DBB2F9
S214001E50002B01D0052342E07B692022FF321A8343
S214001E60FB685B08FB611A23FB1800221A802EE031
S214001E70FB695A1CFA615B001A001223FB181288D1
S214001E801A801A23FB181B88BA68D3181222BA18AD
S214001E901288D2B21A701A23FB181A88BB1D1B8828
S214001EA0013B9A420CDA1A23FB181B880133BA68E6
S214001EB0D3181222BA181288120A92B2D2B21A7024
S214001EC01A23FB181A22BA18128802321A801A230A
S214001ED0FA18BB1D12881B889A42C9D30023180023
S214001EE0BD4608B080BDC046BC0B0020FF1F4000AA
S214001EF0FFFF3F00004000416D19000080B584B030
S214001F0000AF78600F23FB1800221A70364B1B8830
S214001F101A00354B5B885A437B689A420DD27B6821
S214001F20324A934203D87B68314A934201D8182339
S214001F3056E00F23FB1801221A702B4B1B889B00C0
S214001F40013B1A007B68134001D0182348E0294B58
S214001F50BB60294B984703001A0001235340DBB2AD
S214001F60002B01D005233BE0BB682022FF321A83FA
S214001F707B689B085A00BB68DA610F23FB181B7846
S214001F80002B0BD0BB685A688021C9020A435A60EE
S214001F90BB685B68BB68194A1A8002E0BB68184ACF
S214001FA01A80C046144B984703001A00012353407A
S214001FB0DBB2002BF6D10F23FB181B78002B04D0C6
S214001FC0BB685A680F490A405A60BB681B8B9BB2B5
S214001FD0DBB21A001C23134001D0042300E00023C8
S214001FE01800BD4604B080BDBC0B0020FF1F40009B
S214001FF0FFFF3F00004000416D1900001AA5FFFFDB
S21400200002A5FFFFFFFFFBFF80B586B000AF78603C
S2140020102C4B7B617B692022FF321A837B699B688D
S2140020203B613B691B0C0722134008229A401300B1
S214002030DAB27B681A703B699AB27B685A803B6951
S2140020401B0D9AB27B689A811F4B1B889BB21B099B
S2140020509AB20E23FB1807210A401A800E23FB189B
S2140020601B88072B03D17B6800225A600AE00E23E8
S214002070FB181B880622D31A04229A4013001A0063
S2140020807B685A60104B1B889AB20C23FB180721FA
S2140020900A401A800C23FB181B88072B03D17B6889
S2140020A000229A600AE00C23FB181B880722D31A2A
S2140020B004229A4013001A007B689A60C046BD4608
S2140020C006B080BD004000410040800080B582B070
S2140020D000AF78607B6880221A707B6800225A7096
S2140020E07B6801229A707B680022DA70C046BD4683
S2140020F002B080BD80B584B000AF02003960FB1D21
S2140021001A700C23FB181800104B98470C23FB186A
S21400211080221A703B681A780C23FB185A703B68AA
S2140021205A780C23FB189A703B689A780C23FB1895
S214002130DA700C23FA18FB1D1B7811001800044BEC
S2140021409847C046BD4604B080BDC046CD200000BE
S2140021506157000080B582B000AF02003960FB1DF9
S2140021601A70FB1D1B78042B27D89A00164BD31821
S2140021701B689F46154B154A51693A680A435A61CF
S2140021801DE0124B114A91693A680A439A6116E0BB
S2140021900E4B0E4AD1693A680A43DA610FE00B4BE0
S2140021A00A4A116A3A680A431A6208E0074B074A65
S2140021B0516A3A680A435A6201E0172300E0002396
S2140021C01800BD4602B080BDC0AB0200000400404F
S2140021D080B582B000AF0200FB1D1A70064BFA1DD8
S2140021E0127811001F220A40012191400A001A604D
S2140021F0C046BD4602B080BD00E100E080B582B0BA
S21400220000AF0200FB1D1A70074AFB1D1B78190061
S2140022101F230B40012199400B0019008023D15049
S214002220C046BD4602B080BD00E100E080B584B087
S21400223000AF78607B681B68FB60FB681B69002B3F
S21400224001D0012300E000231800BD4604B080BD85
S21400225080B584B000AF78607B681B68FB600220A6
S2140022600D4B9847C0467B6818000C4B9847031EDA
S214002270F9D1FB681B889BB2022213439AB2FB6813
S2140022801A80C0467B681800044B9847031EF9D195
S214002290C046BD4604B080BDD12100002D220000FE
S2140022A080B584B000AF78607B681B68FB60022056
S2140022B0104B9847C0467B6818000F4B9847031E84
S2140022C0F9D1FB680D4A1A81FB680C4A9A81FB68B3
S2140022D01B889BB2022293439AB2FB681A80C046C0
S2140022E07B681800044B9847031EF9D1C046BD46CC
S2140022F004B080BDFD2100002D220000FF81FFFFFD
S21400230080B584B000AF78607B681B68FB607B6834
S2140023101800114B98477B6800229A867B6800223B
S214002320DA86C0467B6818000C4B9847031EF9D126
S214002330FB681B889BB2012213439AB2FB681A8083
S214002340C0467B681800054B9847031EF9D1C04667
S214002350BD4604B080BDC046A12200002D2200006C
S21400236080B584B000AF786039607B681B68BB605E
S2140023703B681B799BB2DB039AB23B681B8813430E
S2140023809AB2BB681A803B689B78002B32D0012B30
S2140023905ED1BB681B889AB2BB681A803B68DB7844
S2140023A0002B07D0BB681B889BB2802213439AB2CF
S2140023B0BB681A800F23FB1800221A7014E00F2344
S2140023C0FB181A783B6802329200D1580F23FB188C
S2140023D01A787B681800224B98470F23FB181A7848
S2140023E00F23FB1801321A700F23FB181B78002BE3
S2140023F0E5D02FE0BB681B889BB2042213439AB239
S214002400BB681A803B68DB78002B01D0172322E0DC
S2140024100E23FB1800221A7014E00E23FB181A78FD
S2140024203B6802329200D1580E23FB181A787B685C
S21400243018000B4B98470E23FB181A780E23FB1830
S21400244001321A700E23FB181B78012BE5D901E028
S214002450172300E000231800BD4604B080BDC04628
S2140024608525000080B584B000AFF860B9607A605A
S214002470FB68BA681A6080235B00190000200D4BC9
S21400248098470D4B05221A61FB6818000B4B9847BE
S2140024907B689A78FB681A71094BFA681A607A6842
S2140024A0FB6811001800074B984703001800BD464C
S2140024B004B080BD5521000000100040012300003C
S2140024C00C1200206123000080B584B000AF786055
S2140024D039607B681B68FB60C0467B681800134B3E
S2140024E09847031EF9D17B681B79002B05D0012B7A
S2140024F00ED1FB683A689A610CE03B680C4A93423E
S21400250001D917230EE03B689AB2FB681A8301E0F4
S214002510172307E0C0467B681800044B9847031E45
S214002520F9D100231800BD4604B080BD2D2200005E
S214002530FFFF000080B584B000AF78607B681B6842
S214002540BB60C0467B6818000D4B9847031EF9D148
S2140025507B681B79002B05D0012B08D1BB689B69D3
S214002560FB6007E0BB681B8B9BB2FB6002E00023AE
S214002570FB60C046FB681800BD4604B080BDC04680
S2140025802D22000080B586B000AFF860B960FB1D54
S2140025901A70FB681B687B61C046FB6818001D4B01
S2140025A09847031EF9D1FB681B79002B0FD0012B2F
S2140025B022D1FB1D1B78012B01D9172326E0FB1D1A
S2140025C01A787B6908329200B968D15016E0FB1D74
S2140025D01B78022B01D9172318E0BB680E4A9342DA
S2140025E001D9172312E0FB1D1A78BB6899B27B69E4
S2140025F010325200D15201E01A2307E0C046FB68B1
S2140026001800044B9847031EF9D100231800BD4656
S21400261006B080BD2D220000FFFF000080B586B00A
S21400262000AFF860B960FB1D1A701723FB18002274
S2140026301A70FB1D1B780A2B03D0FB1D1B78072B7B
S21400264004D81723FB1800221A701FE0FB681B79BA
S214002650002B0AD0012B11D1FB1D1B78092B12D998
S2140026601723FB1817221A700DE0FB1D1B780A2B88
S2140026700BD91723FB1817221A7006E01723FB182E
S21400268017221A7002E0C04600E0C0461723FB1867
S2140026901B78002B15D1FB1D1A78FB6802329200BE
S2140026A0B968D150FB689B8E9BB21AB2FB1D1B7893
S2140026B0012199400B001BB213431BB29AB2FB6870
S2140026C09A861723FB181B781800BD4606B080BDF7
S2140026D080B584B000AF78600A00FB1C1A707B6877
S2140026E01B68FB60FB1C1B780A2B03D1FB681A4A8D
S2140026F05A811EE0FB1C1B78072B0BD8FB1C1B7893
S21400270001229A4013009BB2FF2213409AB2FB6844
S2140027105A810EE0FB1C1B78083B01229A401300EE
S2140027209BB21B029AB2C0239B0013409AB2FB686E
S2140027305A817B68DB8E9BB21AB2FB1C1B78012188
S21400274099400B001BB213431BB29AB27B68DA8621
S214002750C046BD4604B080BD0080FFFF80B584B093
S21400276000AF78600A00FB1C1A707B681B68FB6071
S214002770FB1C1B780A2B03D1FB681B4A1A811EE040
S214002780FB1C1B78072B0BD8FB1C1B7801229A40DE
S21400279013009BB2FF2213409AB2FB681A810EE028
S2140027A0FB1C1B78083B01229A4013009BB21B02BD
S2140027B09AB2C0239B0013409AB2FB681A817B68CA
S2140027C0DB8E9BB21BB2FA1C1278012191400A00E4
S2140027D012B2D24312B213401BB29AB27B68DA86A8
S2140027E0C046BD4604B080BD0080FFFF80B586B001
S2140027F000AF7860584B7A689200D3583B613B69CB
S2140028001B68FB600A23FB183A69D28E1A803B6964
S2140028109B8E9AB20A23FB180A21791809880A4067
S2140028201A800823FB18FA6892891A80FB685B896D
S2140028309AB20823FB180821791809880A401A80DA
S2140028400823FB1800229B5E002B0DDA0A23FB18D8
S2140028501A888023DB00134002D03B691B6B984725
S214002860FB683E4A9A8172E00823FB181B88FF2209
S214002870134041D01723FB1800221A701723FB18A9
S21400288000221A7032E00823FB181B881722BA1899
S2140028901278012191400A001340FF22134012D003
S2140028A00A23FB181A881723FB181B781A411300F3
S2140028B00122134007D01723FB181A783B6902320F
S2140028C09200D35898471723FB181B7801229A408A
S2140028D013009BB2FF2213409AB2FB689A8117231B
S2140028E0FB181A781723FB1801321A701723FB18E7
S2140028F01B78072BC7D92AE00823FB181A888023E1
S2140029005B0013400ED00A23FB181A8880235B0056
S214002910134002D03B699B6A9847FB6880225200AE
S2140029209A8114E00823FB181A8880239B00134022
S2140029300DD00A23FB181A8880239B00134002D070
S2140029403B69DB6A9847FB68802292009A81C04602
S214002950BD4606B080BDC0460C1200200080FFFFBA
S21400296080B500AF0020024B9847C046BD4680BDEC
S214002970ED27000080B582B000AF78607B6800224B
S2140029801A70C046BD4602B080BDF0B58DB000AF2F
S214002990B860F9603A607B60002300243B627C628A
S2140029A000230024BB61FC613F23FB6253E0FB6A0B
S2140029B0203B002B04DB01229A4013007B610BE0D6
S2140029C0FB6A2022D31A0122DA4013000021FA6A99
S2140029D091400A0013437B610122FB6A9A40130070
S2140029E03B61BB69FC69DB186441BB61FC61BB6889
S2140029F03A691A401500FB687A691A4016002B00DF
S214002A00334307D0BB6901221343BB61FB69002235
S214002A101343FB617A68FB699A4219D87A68FB69A6
S214002A209A4203D13A68BB699A4211D8B969FA69E1
S214002A303B687C68C91AA2410B001400BB61FC61AC
S214002A403A6A3B6913433B627A6A7B6913437B624B
S214002A50FB6A013BFB62FB6A002BA8DA3B6A7C6AD6
S214002A6018002100BD460DB0F0BD80B586B000AFA1
S214002A70F860B9607A601623FB1800221A80BB68DB
S214002A803B61BB685A08FB689A4201D2402326E0A5
S214002A90BB685B083B610AE03A69FB68D31A3B6196
S214002AA01623FB181A881623FB1801321A803A6977
S214002AB0FB689A42F0D21623FB181622BA18128820
S214002AC0013A1A801623FB181B88FF2B01D94023D6
S214002AD005E07B681622BA1812881A8000231800B0
S214002AE0BD4606B080BD0000F0B5A1B000AFF864EA
S214002AF0B9647A644322BA181370002300243B6733
S214002B007C6700230024BB66FC6600230024BB67AA
S214002B10FC6700237B66582340229446BC446344EB
S214002B201A78FB6C5A43BB6C9A4201D94023B3E037
S214002B304323FB181B78002B3DD158234022944694
S214002B40BC4463441B78DBB23B6100237B61FB6CB7
S214002B50BB600023FB60524CBA68FB683869796931
S214002B60A04703000C001B00FB650023BB65BB6C85
S214002B703B6000237B60B86DF96D3A687B68494C12
S214002B80A04703000C003B677C67002101223B6FD7
S214002B907C6FC91AA2410B001400BB66FC66BB6EB4
S214002BA01B0CFA6E16041E43BB6E1D043300BB6777
S214002BB00023FB676AE04323FB181B78012B65D1D3
S214002BC0FB6C3B6300237B63582340229446BC4443
S214002BD063441B78DBB2BB620023FB62304CBA6AEC
S214002BE0FB6A386B796BA04703000C00BB65FC657D
S214002BF0BB6C3B6200237B62BB6DFC6D1A0023003E
S214002C00386A796A274CA04703000C007B667A6E08
S214002C1080239B019A4201D940233DE0BB6CBB61F7
S214002C200023FB61B969FA690B005B0F1000C00056
S214002C30F863F86B1843F8630B00DB00BB63BB6DEF
S214002C40FC6D1A002300B86BF96B164CA047030006
S214002C500C00BB65FC65BB6DFC6DD9B27B6EDBB250
S214002C60DB00DAB2172340208446BC4463448A1A49
S214002C701A70172340229446BC4463441B785B03B7
S214002C801A007B6E1343BB670023FB67BB6FFC6FAA
S214002C909AB27B6C1A8000231800BD4621B0F0BDA6
S214002CA0851402008B29000080B584B000AF0200B6
S214002CB0FB1D1A70BB1D0A1C1A701A4B1B780122CA
S214002CC05340DBB2002B03D1BB1D1B78002B1BD05F
S214002CD00C23FB181800144B98470C23FB18FA1DFE
S214002CE012781A700C23FB18190011200F4B984706
S214002CF011200F4B98470B4BFA1D12785A70094B50
S214002D0001221A70002308E0064B5B78FA1D127841
S214002D109A4201D1002300E01D231800BD4604B0EE
S214002D2080BDC046C40B002075290000AD540000CD
S214002D30ED54000080B582B000AF78600A00FB1C3E
S214002D401A707B684E4A934240D04D4A934207D849
S214002D508422D20593420FD04A4A934221D089E07A
S214002D60494A934200D15BE0484A934200D16CE066
S214002D70474A93423FD07DE0FB1C1B78012B0AD0CC
S214002D8002DC002B05D075E0022B06D0032B06D004
S214002D9070E0404B6FE0404B6DE0404B6BE0404BCB
S214002DA069E0FB1C1B78012B0AD002DC002B05D047
S214002DB060E0022B06D0032B06D05BE003235AE02C
S214002DC0384B58E0384B56E0384B54E0FB1C1B7829
S214002DD0012B0AD002DC002B05D04BE0022B06D0DC
S214002DE0032B06D046E0324B45E0324B43E0324BF5
S214002DF041E0324B3FE0FB1C1B78012B0AD002DC83
S214002E00002B05D036E0022B06D0032B06D031E08F
S214002E102B4B30E02B4B2EE02B4B2CE02B4B2AE0A1
S214002E20FB1C1B78012B0AD002DC002B05D021E00E
S214002E30022B06D0032B06D01CE000231BE0002349
S214002E4019E0234B17E0234B15E0FB1C1B78012BE6
S214002E500AD002DC002B05D00CE0022B06D0032B98
S214002E6006D007E01C4B06E01C4B04E01C4B02E0BF
S214002E701C4B00E000231800BD4602B080BDC046D3
S214002E800008004200040042001000420004004314
S214002E90000C0042030004000300050003000600C7
S214002EA0030007000300010003001E0003001F00CC
S214002EB0030008000300090003000A0003000B00DB
S214002EC003001000030011000300120003001300AB
S214002ED003000E0003000F00030016000300170097
S214002EE0030018000300190090B58BB000AF78609F
S214002EF00C23FB180F4A13CA13C313CA13C30023A9
S214002F007B620EE00C23FB187A6A9200D3581A00F4
S214002F107B689A4202D17B6ADBB206E07B6A0133A9
S214002F207B627B6A052BEDD900231800BD460BB0EB
S214002F3090BDC046D4AB020080B582B000AF0200A0
S214002F40FB1D1A70C046BD4602B080BD80B584B079
S214002F5000AF02003960FB1D1A70134B1B7801226C
S214002F605340DBB2002B15D00023FB600CE00F4B68
S214002F70FA6892000E49D1500E4BFA689200002172
S214002F80D150FB680133FB60FB68052BEFD9064B7D
S214002F9001221A70FB1D1A78044B92003968D15032
S214002FA0C046BD4604B080BDC60B0020C80B00203E
S214002FB0392F00001012002090B585B000AF786061
S214002FC00823FB180B4A1168196092889A800F2311
S214002FD0FC187B681800084B9847030023700F23E3
S214002FE0FB181B780822BA18D35C5BB21800BD46E3
S214002FF005B090BDECAB0200E92E000080B500AF36
S214003000034B1B6800209847C046BD4680BDC0469F
S214003010C80B002080B500AF034B5B6801209847C3
S214003020C046BD4680BDC046C80B002080B500AF78
S214003030034B9B6802209847C046BD4680BDC046ED
S214003040C80B002080B500AF034BDB680320984711
S214003050C046BD4680BDC046C80B002080B500AF48
S214003060034B1B6904209847C046BD4680BDC0463A
S214003070C80B002080B500AF034B5B69052098475E
S214003080C046BD4680BDC046C80B002080B582B095
S21400309000AF78607B6880221A707B6800225A70C6
S2140030A07B6801229A707B680022DA70C046BD46B3
S2140030B002B080BD80B584B000AF0200FB1D1A7060
S2140030C00F23FB18FA1D1278D2091A700E23FB186C
S2140030D0FA1D127852091A700D4BBB600F23FB18AD
S2140030E01B78002B0FD10F23FB181B789B00102298
S2140030F09446BC446344083B1A680E23FB181B78AE
S214003100DB01D31800E000231800BD4604B080BDE4
S2140031100028004080B586B000AF0200FB1D1A7084
S214003120FB1D1B781800194B984703007B61FB1D9D
S2140031301B781F2213403B617A6940213B69D318F4
S2140031405B181B78DBB21A000123134001D18023E1
S21400315018E03B695B087A693021D3185B181B7846
S214003160DBB2FB603B690122134006D0FB681B09FB
S214003170DBB20F221340DBB204E0FB68DBB20F22A7
S2140031801340DBB21800BD4606B080BDB530000067
S21400319080B582B000AF0200FB1D1A70FB1D1B78C5
S2140031A01800034B984703001800BD4602B080BDC8
S2140031B0B530000080B584B000AF0200FB1D1A7069
S2140031C0BB1D0A1C1A70FB1D1B7818000D4B984778
S2140031D00300FB60FB1D1B781F22134001229A4050
S2140031E01300BB60BB1D1B78002B03D0FB68BA68BE
S2140031F09A6102E0FB68BA685A61C046BD4604B0F0
S21400320080BDC0469131000080B582B000AF7860C6
S2140032107B6800221A70C046BD4602B080BD000022
S21400322080B582B000AF02003960FB1D1A70FB1D2E
S2140032301B78042B27D89A00164BD3181B689F467A
S214003240154B154A51693A680A435A611DE0124BFC
S214003250114A91693A680A439A6116E00E4B0E4A83
S214003260D1693A680A43DA610FE00B4B0A4A116AE1
S2140032703A680A431A6208E0074B074A516A3A68F6
S2140032800A435A6201E0172300E000231800BD46F7
S21400329002B080BDF4AB02000004004080B500AF71
S2140032A0054B9B78DBB21A00022313405A1E93414B
S2140032B0DBB21800BD4680BD0020004180B584B05A
S2140032C000AF78607B681B68FB60FB681B7EDBB228
S2140032D01A00012313405A1E9341DBB21800BD4664
S2140032E004B080BD80B584B000AF78607B681B6892
S2140032F0FB60FB681B7EDBB21A00042313405A1ED9
S2140033009341DBB21800BD4604B080BD80B584B0E2
S21400331000AF78600A00BB1C1A807B681B68FB60E5
S2140033207B6818000A4B984703001A000123534095
S214003330DBB2002B01D0052306E0BB1C1B88DB0597
S214003340DA0DFB689A6200231800BD4604B080BD03
S214003350BD32000080B584B000AF786039607B680D
S2140033601B68BB607B6818001B4B984703001A005D
S21400337001235340DBB2002B01D0102327E00F239C
S214003380FB1800221A70BB685B8B9BB21A000423E2
S214003390134006D00F23FB181E221A70BB680422A7
S2140033A05A837B689B79012B08D1BB689B6A9BB2CA
S2140033B0DB05DB0D9AB23B681A8005E0BB689B6AAA
S2140033C0DBB29AB23B681A800F23FB181B781800F2
S2140033D0BD4604B080BDC046E532000090B593B04F
S2140033E000AF786039607B681B687B637B681B680E
S2140033F03B631C23FB181800754B98471C23FB18CF
S21400340000225A703B681B78002B03D11C23FB1844
S21400341000229A703B689A6A0C23FB181A603B6875
S214003420DA6A0C23FB185A603B681A6B0C23FB18ED
S2140034309A603B685A6B0C23FB18DA604723FB182C
S21400344000221A702CE04723FB181A780C23FB186E
S2140034509200D3583B643B6C002B09D14723FB18E2
S2140034601A783B6B110018005A4B984703003B64D0
S2140034703B6C01330DD03B6CDAB21C23FB181A7080
S2140034803B6C1B0CDBB21C22BA1811001800524B06
S21400349098474723FB181A784723FB1801321A70FF
S2140034A04723FB181B78032BCDD93B681A787B681B
S2140034B05A713B681A7C7B689A713B689A7C7B6879
S2140034C0DA713B681A7D7B681A720A23FB180022A1
S2140034D01A800023FB630023BB633B681B78012B29
S2140034E029D17B681B6818003C4B98470300FB6299
S2140034F0FB6A1233BB62BB6ADBB21800384B9847D4
S21400350003007B623B689B692322BC180A22BA1818
S214003510796A1800334B9847030023702323FB185F
S2140035201B78002B01D017234EE00A23FB181B88BC
S214003530DAB27B6B1A733B685B68FA6B1343FB6308
S2140035403B689B68FA6B1343FB633B68DB68FA6B6C
S2140035501343FB633B681B7C1A00BB6B1343BB63C4
S2140035603B685B7C002B03D11F4B9847031E03D0A0
S214003570FB6B80221343FB633B689B7C002B04D0D1
S214003580BB6B802292021343BB633B68DB7C002B41
S21400359004D0BB6B802292001343BB633B681B7D49
S2140035A0002B04D0BB6B802292011343BB637B6B62
S2140035B01A68FB6B1A437B6B1A607B6B5A68BB6B93
S2140035C01A437B6B5A6000231800BD4613B090BDAB
S2140035D08D300000352D000061570000E92E0000F8
S2140035E09D5500006B2A00009D32000090B591B0FA
S2140035F000AF786039607B681B68FB627B681B687D
S214003600BB623B689A6A1023FB181A603B68DA6A4A
S2140036101023FB185A603B681A6B1023FB189A603D
S2140036203B685A6B1023FB18DA603F23FB18002216
S2140036301A7030E03F23FB181A781023FB1892000C
S214003640D358BB63BB6B002B09D13F23FB181A78FA
S214003650BB6A11001800564B98470300BB63BB6B50
S214003660013310D0BB6B1B041C0CBB6B1B0CDBB2FA
S2140036701800504B984703009C4205D07B680022F8
S2140036801A601C238FE0C0463F23FB181A783F239E
S214003690FB1801321A703F23FB181B78032BC9D97D
S2140036A01120454B984703007B6200237B63002371
S2140036B03B633B681B78012B21D13B689B69232227
S2140036C0BC180E22BA18796A18003C4B98470300BB
S2140036D023702323FB181B78002B01D0172362E0EE
S2140036E0FB6A1B7BDAB20E23FB181B88DBB29A42FE
S2140036F001D01C2357E07B6B0C2213437B633B6893
S2140037005B687A6B13437B633B689B687A6B1343F7
S2140037107B633B68DB687A6B13437B633B681B7C8D
S2140037201A003B6B13433B633B685B7C002B03D068
S2140037307B6B802213437B633B689B7C002B04D00F
S2140037403B6B8022920213433B633B68DB7C002B7F
S21400375004D03B6B8022920013433B633B681B7D87
S214003760002B04D03B6B8022920113433B637B6BA0
S214003770022213437B63FB6A1A687B6B9A420ED164
S214003780FB6A5A683B6B9A4209D13B681A787B6899
S2140037905A713B681A7C7B689A71002303E07B6849
S2140037A000221A601C231800BD4611B090BDC0460A
S2140037B0352D0000153100009D5500006B2A0000D5
S2140037C080B58AB000AFF860B9607A60FB68BA6806
S2140037D01A60FB681B68FB61FB691B6802221340CA
S2140037E007D07A68FB6811001800334B984703002F
S2140037F05EE0FB691B680122134001D0052357E0F9
S214003800FB681B6818002D4B98470300BB61BB691B
S214003810052B04D101237B6218233B6204E0BB69BD
S2140038207B62BB6912333B62BB69052B08D1012260
S2140038307B6A9A40130019000320214B984707E043
S21400384001227B6A9A401300190002201C4B9847FD
S2140038501423FB1818001B4B98477B6824229A5C9D
S2140038601423FB181A703B6ADBB21422BA18110034
S2140038701800154B98473B6ADBB21800134B984765
S2140038807B6824229B5C00211800114B98477B68BC
S2140038901B78012B05D1FB691B680C221A43FB69B8
S2140038A01A607A68FB68110018000A4B98470300F4
S2140038B01800BD460AB080BDED350000E92E0000B8
S2140038C02132000009320000AD540000ED54000023
S2140038D0A92C0000DD33000080B586B000AFF8608C
S2140038E0B960FB1D1A70FB685B79012B01D01523AC
S2140038F05CE0FB681B7A01225340DBB2002B54D0FD
S214003900FB1D1B78002B4AD0BB685B78002B3FD092
S214003910FB681800274B984703001A000123534002
S214003920DBB2002B07D0BB681B7801211800224BA6
S214003930984705233AE0BB681B78002118001E4B09
S2140039409847BB689B789AB2FB68110018001B4B1F
S2140039509847FB68DB7901225340DBB2002B24D06A
S214003960C046FB681800164B984703001A00012350
S2140039705340DBB2002BF4D11623FB1800221A802A
S2140039801623FA18FB68110018000E4B98470CE037
S214003990BB681B7800211800074B984705E0BB68FA
S2140039A01B7801211800044B984700231800BD46D9
S2140039B006B080BDBD320000B53100000D330000FA
S2140039C0E53200005533000080B582B000AF786065
S2140039D07B6800221A70C046BD4602B080BD00005B
S2140039E080B582B000AF02003960FB1D1A70FB1D67
S2140039F01B78042B27D89A00164BD3181B689F46B3
S214003A00154B154A51693A680A435A611DE0124B34
S214003A10114A91693A680A439A6116E00E4B0E4ABB
S214003A20D1693A680A43DA610FE00B4B0A4A116A19
S214003A303A680A431A6208E0074B074A516A3A682E
S214003A400A435A6201E0172300E000231800BD462F
S214003A5002B080BD08AC02000004004080B582B011
S214003A6000AF78607B6880221A707B6800225A70EC
S214003A707B6801229A707B680022DA70C046BD46D9
S214003A8002B080BD80B500AF054B9B78DBB21A0054
S214003A90022313405A1E9341DBB21800BD4680BD78
S214003AA00020004180B584B000AF78607B681B685A
S214003AB0FB60FB68DB695A1E9341DBB21800BD460B
S214003AC004B080BD80B582B000AF7860C0467B6829
S214003AD01800044B9847031EF9D1C046BD4602B0F5
S214003AE080BDC046A53A0000B0B58CB002AF786085
S214003AF039607B681B687B617B681B681800AC4B71
S214003B00984703003B613B69052B02D118237B6273
S214003B1002E03B6912337B6200233B620023FB61B9
S214003B200A23FB1800221A801B23FB1800221A7097
S214003B301A23FB1810221A703B681B8A8022D201B7
S214003B4093421CD08022D201934206DC002B0DD07B
S214003B5080229201934224D035E0C022D2019342C3
S214003B6028D080221202934212D02CE01B23FB188E
S214003B7000221A701A23FB1810221A7023E01B2347
S214003B80FB1800221A701A23FB1808221A701AE073
S214003B901B23FB1800221A701A23FB1803221A7024
S214003BA011E01B23FB1801221A701A23FB1810229F
S214003BB01A7008E01B23FB1801221A701A23FB1840
S214003BC008221A70C0463B681A683B68DB681A43CE
S214003BD03B685B6913433A68128A13433A68127E5D
S214003BE0120213433A682621525C520713433B6283
S214003BF01923FB1800221A703B685B68FB60FB68A1
S214003C00002B1ED08022520593424FD13B682722BC
S214003C109B5C01225340DBB2002B46D03B681D6AFA
S214003C207B6ADBB21800634B984701001923FC1827
S214003C300A23FB181A0028005F4B984703002370DE
S214003C4033E03B6827229B5C002B14D03B68186A45
S214003C503B68996A1923FC181B23FB181D780A2356
S214003C60FA181A23FB181B7800932B00534DA8470D
S214003C70030023701AE03B681D6A7B6ADBB21800FB
S214003C804C4B98471923FC181B23FB1819780A235A
S214003C90FA181A23FB181B7800930B000100280063
S214003CA0464DA8470300237000E0C0461923FB18C2
S214003CB01B78002B03D01923FB181B7873E03B6896
S214003CC05B7E002B03D03B689A7E7B699A730A233F
S214003CD0FB181A887B699A813A6AFB6813433B6231
S214003CE03B6827229B5C01225340DBB2002B03D0AB
S214003CF03B6A042213433B623B685B7E9A023B6846
S214003D001B7F5B021A433B685B7F1B021A433B68C0
S214003D1024215B5C5B041A433B6825215B5C1B0427
S214003D201343FB613B689B7A1A00FB691343FB61F4
S214003D303B68DB7A1A00FB691343FB613B681B890F
S214003D40FF2B0BD03B6A8022520413433B623B6836
S214003D501B891A00FB691343FB6108E03B68DB7EA6
S214003D60002B04D03B6A8022D20413433B623B689C
S214003D702C229B5C002B03D1114B9847031E03D0CB
S214003D803B6A802213433B627B6818000D4B9847C2
S214003D907B69FA695A607B6818000A4B98477B690A
S214003DA03A6A1A6000231800BD460AB0B0BDC04685
S214003DB0E92E00009D5500006B2A0000E92A00004D
S214003DC0853A0000C53A000090B593B000AFF860A1
S214003DD0B9607A603323FB1800221A70FB68BA6851
S214003DE01A60FB681B68FB62FB681B6818008F4B39
S214003DF098470300BB62BB6A052B04D101237B6492
S214003E0018233B6404E0BB6A7B64BB6A12333B64E2
S214003E10FB6A1B680122134001D0052302E1FB6AFE
S214003E201B680222134001D01C23FBE0BB6A052B53
S214003E3008D101227B6C9A401300190003207C4BAA
S214003E40984707E001227B6C9A4013001900022075
S214003E50774B98472423FB181800764B98477B68C7
S214003E602D229A5C2423FB181A703B6CDBB22422AA
S214003E70BA1811001800704B98473B6CDBB218005C
S214003E806E4B98477B682D229B5C002118006C4B7C
S214003E9098477B68DA7AFB685A717B6824229A5CBA
S214003EA0FB689A717B6825229A5CFB68DA717B68EE
S214003EB0DA7EFB681A727B681A7FFB685A723323B5
S214003EC0FC187A68FB68110018005E4B98470300E0
S214003ED023703323FB181B78002B03D03323FB18E7
S214003EE01B789FE02023FB181800574B9847202389
S214003EF0FB1800225A702023FB1800229A707B6859
S214003F001A6B1023FB181A607B685A6B1023FB1879
S214003F105A607B689A6B1023FB189A607B68DA6B92
S214003F201023FB18DA603F23FB1800221A702CE0DF
S214003F303F23FB181A781023FB189200D358BB6354
S214003F40BB6B002B09D13F23FB181A78BB68110006
S214003F5018003E4B98470300BB63BB6B01330DD084
S214003F60BB6BDAB22023FB181A70BB6B1B0CDBB2E0
S214003F702022BA1811001800354B98473F23FB182B
S214003F801A783F23FB1801321A703F23FB181B7860
S214003F90032BCDD900237B630AE0FA687B6B0233E0
S214003FA09B00D318043300221A607B6B01337B63BB
S214003FB07B6B052BF1D9FB6800229A62FB68002216
S214003FC05A62FB680022DA85FB6800229A85FB6845
S214003FD0302200219954FB68312200219954FB6855
S214003FE0322200219954FB68332200219954FB6841
S214003FF01B682722BC1818000C4B98470300237038
S214004000144A2723FB181B7811001800124B9847F8
S2140040102723FB181A78114B9200F968D1503323E6
S214004020FB181B781800BD4613B090BDE92E0000A3
S214004030E1390000C9390000AD540000ED5400001D
S214004040A92C0000E93A00005D3A0000352D00007A
S21400405061570000E54200004D2F000010120020BE
S21400406080B584B000AF78600A00BB1C1A807B68FD
S2140040701B68FB607B68DB7901225340DBB2002BB8
S21400408001D01C2313E07B68DB8D9BB2002B01D094
S21400409005230CE0FB68BA1C12881A85C046FB682C
S2140040A01B7EDBB21A0002231340F8D00023180050
S2140040B0BD4604B080BD80B584B000AF786039607E
S2140040C07B681B68FB607B689B7901225340DBB2F0
S2140040D0002B01D01C235AE07B689B8D9BB2002BE3
S2140040E001D0052353E0FB681B7EDBB21A000423D5
S2140040F0134001D105234AE0FB685B8B9BB2DAB222
S2140041000B23FB183F210A401A700B23FB181B7861
S214004110002B36D00B23FB181B780222134004D04A
S214004120FB6802225A831A2331E00B23FB181B7804
S2140041300422134004D0FB6804225A831E2326E080
S2140041400B23FB181B780122134004D0FB680122C6
S2140041505A8313231BE00B23FB181B7810221340F3
S21400416004D0FB6810225A83422310E00B23FB186E
S2140041701B782022134004D0FB6820225A83412358
S21400418005E0FB681B8D9AB23B681A800023180076
S214004190BD4604B080BD000090B589B000AFF860A1
S2140041A0B960BB1D1A80BB1D1B88002B01D11723CD
S2140041B06DE0FB689B7901225340DBB2002B01D0F7
S2140041C01C2364E0FB681B687B611E23FB1800222F
S2140041D01A8054E00023BB610FE07B691B7EDBB2D4
S2140041E01A00042313400DD1BB692B4A934201D118
S2140041F012234CE0BB690133BB61BB69264A93427C
S214004200EBD900E0C0461023FB1800221A801323C7
S214004210FC181023FA18FB68110018001F4B98476B
S214004220030023701323FB181B78002B03D01323E3
S214004230FB181B782BE01E23FB181B881E22BA18BF
S214004240591C11801A00BB689B181022BA181288D5
S214004250D2B21A70FB685B79012B10D11E23FB18B3
S2140042601B881E22BA18591C11801A00BB689B189E
S2140042701022BA181288120A92B2D2B21A70BB1D55
S2140042801B88BA1D591E1180002BA3D100231800CD
S214004290BD4609B090BDC046FFFF0000B740000015
S2140042A080B584B000AF78607B681B68FB60FB68F5
S2140042B0DB695A1E9341DBB21800BD4604B080BDD0
S2140042C080B582B000AF7860C0467B681800044BAB
S2140042D09847031EF9D1C046BD4602B080BDC04611
S2140042E0A142000080B588B000AF0200FB1D1A7026
S2140042F0FB1D1A78A34B9200D358BB61BB691B68A1
S2140043007B61BB691800A04B98477B691B7EDAB2BD
S2140043101223FB181A807B699B7DDBB29AB21223AC
S214004320FB181221791809880A401A80BB693022C6
S2140043309B5CBA693121525C1340DAB21023FB1839
S2140043401A801223FB181B880122134044D0BB6935
S214004350DB8D9BB2002B3CD0BB699B6A1B78DAB224
S2140043601C23FB181A80BB699B6A5A1CBB699A629D
S214004370BB695B79012B13D1BB699B6A1B78DBB2E7
S2140043801B021AB21C23FB1800215B5E13431AB2F1
S2140043901C23FB181A80BB699B6A5A1CBB699A626D
S2140043A01C23FB181B88DB05DB0D9AB27B691A857C
S2140043B0BB69DB8D9BB2013B9BB2BA69191CD185E8
S2140043C0002B09D17B6901221A757B6902229A7536
S2140043D002E07B6901221A751223FB181B88022251
S2140043E0134011D07B6902221A75BB693322002163
S2140043F099541023FB181B880122134004D0BB6974
S214004400DB68BA69100098471223FB181B88042241
S214004410134000D1BDE0BB699B8D9BB2002B00D141
S214004420B4E07B695B8B9BB2DAB21F23FB183F219B
S2140044300A401A701F23FB181B780822134007D067
S2140044401F23FB181F22BA18127808218A431A70F5
S2140044501F23FB181B78002B50D01F23FB181B783C
S2140044600222134007D0BB6932221A2199547B6975
S21400447002225A8336E01F23FB181B7804221340BF
S21400448007D0BB6932221E2199547B6904225A83C5
S21400449028E01F23FB181B780122134007D0BB69B6
S2140044A03222132199547B6901225A831AE01F2372
S2140044B0FB181B781022134007D0BB69322242211A
S2140044C099547B6910225A830CE01F23FB181B7833
S2140044D02022134006D0BB693222412199547B69C1
S2140044E020225A831023FB181B880422134050D026
S2140044F0BB695B69BA69100098474AE07B691B8D07
S2140045009AB20E23FB18D205D20D1A80BB695B6ADD
S2140045100E22BA181288D2B21A70BB695B6A5A1C8D
S214004520BB695A62BB695B79012B0DD1BB695B6ABB
S2140045300E22BA181288120A92B2D2B21A70BB6948
S2140045405B6A5A1CBB695A62BB699B8D9BB2013B76
S2140045509BB2BA69191C9185002B1AD17B6904227B
S2140045601A75BB693222002199541023FB181B8848
S214004570022213400DD0BB691B69BA691000984728
S21400458007E0C04610120020C14200007B690422EA
S2140045901A751223FB181B881022134010D07B6953
S2140045A010221A757B6910221A761023FB181B88B6
S2140045B01022134004D0BB69DB69BA691000984723
S2140045C01223FB181B882022134010D07B69202260
S2140045D01A757B6920221A761023FB181B8808227E
S2140045E0134004D0BB699B69BA6910009847122330
S2140045F0FB181B880822134010D07B6908221A7506
S2140046007B6908221A761023FB181B882022134089
S21400461004D0BB691B6ABA6910009847C046BD46FD
S21400462008B080BD80B582B000AF78607B6801229C
S2140046305A607B6800225A707B6806221A707B6874
S21400464000221A727B6800225A72C046BD4602B02B
S21400465080BD80B582B000AF78607B6800221A709B
S214004660C046BD4602B080BD80B582B000AF78605F
S2140046707B6800221A707B6802225A707B68802250
S21400468012025A607B6800229A707B680122DA70F8
S2140046907B6800221A727B6801225A727B680022AD
S2140046A09A72C046BD4602B080BD80B582B000AFEB
S2140046B078607B6800221A707B6800225A707B68DC
S2140046C001229A70C046BD4602B080BD80B582B059
S2140046D000AF78607B6800221A707B6800229A80A0
S2140046E07B680022DA807B6800221A727B680022D0
S2140046F05A727B6801225A707B6800229A707B6827
S21400470007229A727B683F229A817B6801229A73FD
S2140047107B6801221A827B680C225A82C046BD46FC
S21400472002B080BD80B582B000AF0200FB1D1A70DB
S214004730C046BD4602B080BD80B582B000AF020064
S214004740FB1D1A70054AFB1D1B78012199400B00C2
S214004750DBB21371C046BD4602B080BD0004004007
S21400476080B582B000AF0200FB1D1A70054AFB1D23
S2140047701B78012199400B00DBB25371C046BD4641
S21400478002B080BD0004004080B582B000AF0200D9
S214004790FB1D1A70054AFB1D1B78012199400B0072
S2140047A0DBB29371C046BD4602B080BD0004004037
S2140047B080B500AF0020074B98470200064B1B79D8
S2140047C0DBB21900054B1000984703001800BD46E1
S2140047D080BDC046ED530000000400406910020092
S2140047E080B582B000AF0200FB1D1A70084AFB1DA0
S2140047F01B780F210B40D9B253680F2001404900A7
S2140048001E2083430B435360C046BD4602B080BDA6
S2140048100040004180B582B000AF0200FB1D1A7058
S2140048208023DB059B78DBB2FA1D12789A4201D111
S214004830002319E08023DB059B78DBB25BB2002BFC
S21400484001DA172310E08023DB0501229A7180230A
S214004850DB05FA1D12789A70C0468023DB059B792B
S214004860DBB2002BF9D000231800BD4602B080BD95
S21400487080B500AFC046044BDA6880235B00134067
S214004880F9D0C046BD4680BD000C004080B584B05F
S21400489000AF3B1D18001E4B98473B1D03221A70A5
S2140048A03B1D190000201B4B984706201A4B9847C3
S2140048B03B001800194B98473B0001221A703B003A
S2140048C000229A703B0000225A703B001800144BDE
S2140048D098470620134B9847C0460620124B984729
S2140048E003001A0001235340DBB2002BF5D13B1D19
S2140048F01800074B98473B1D06221A703B1D1900EF
S2140049000020044B9847C046BD4604B080BDC04654
S2140049102546000081520000454D0000AB460000D1
S214004920314A0000854C0000F14D000080B500AF14
S2140049300C4B02221A830C4B98470A4A0B4B9B6877
S2140049401362084A094B5B68D361064B00221A8340
S214004950054B9847034A054B1B689BB21383C0461A
S214004960BD4680BD000C004071480000E00B0020F2
S21400497080B582B000AF0200FB1D1A70FB1D1B78CD
S214004980082B41D89A00234BD3181B689F46224B0E
S2140049901B693AE0214B1B7D1B079B0FDBB20133E3
S2140049A01A001F4B534330E080231B022DE0802368
S2140049B01B022AE0184B5B6927E0174B1B68022294
S2140049C0134001D1002320E0164B9847124B1B687A
S2140049D00422134009D00020134B984702000E4BC8
S2140049E09B681B041B0C53430FE0104B0DE00B4A57
S2140049F02823D35CDBB21A000223134001D1002324
S214004A0003E0054BDB6800E000231800BD4602B05B
S214004A1080BDC0461CAC0200E00B0020000C00402D
S214004A2000093D00714800009D550000006CDC0246
S214004A3080B584B000AF78601C4A0C23FB18127D4A
S214004A401A707B681B781A1C03231340DAB20C23F7
S214004A50FB1803210A4090001A780C218A43111C87
S214004A60021C0A431A707B689A780C23FB18D00144
S214004A701A787F210A40111C021C0A431A707B68B0
S214004A805A780C23FB1801210A4090011A7840211D
S214004A908A43111C021C0A431A70044A0C23FB1892
S214004AA01B781375C046BD4604B080BD000C0040A0
S214004AB080B584B000AF78603A4B5B69FB607B687A
S214004AC05B781A1C07231340DAB20D23FB18072164
S214004AD00A4010001A7807218A43111C021C0A4358
S214004AE01A707B681B78002B06D10C23FB181A78EB
S214004AF004210A431A7005E00C23FB181A780421D7
S214004B008A431A707B689A780C23FB1801210A40A6
S214004B1010011A7810218A43111C021C0A431A70CD
S214004B207B68DA780C23FB1801210A40D0001A783B
S214004B3008218A43111C021C0A431A707B685A7AA1
S214004B400C23FB18D0011A787F210A40111C021C86
S214004B500A431A707B681A7A0C23FB1801210A4054
S214004B6090011A7840218A43111C021C0A431A70CD
S214004B707B689A7A0D23FB1801210A4010011A78E7
S214004B8010218A43111C021C0A431A707B685A685B
S214004B90054B5A61034BFA685A61C046BD4604B0DD
S214004BA080BDC04600100040E00B002080B582B0FB
S214004BB000AF78607B689B7A9B021B041A0C7B68AC
S214004BC09B899B059B0D1A432C4B5A607B681A7A6F
S214004BD07B685B7A1343DBB21A007B689B881343BF
S214004BE07A68D2881A437B685B78DB011A437B6855
S214004BF09B789B011A43214B1A607B681B78042B19
S214004C0016D17B689B7B9B061A007B681B8A1B045D
S214004C1019001B4B0B4013437A68528A1A43174BF2
S214004C209A60164B1B687A6812781A43134B1A6000
S214004C307B681B78202B1CD17B689B7B9B061A000D
S214004C407B681B8A1B0419000D4B0B4013437A68C4
S214004C50528A1A43094B9A60084B1B687A68127886
S214004C6004210A43D2B213438022D2001A43034BD4
S214004C701A60C046BD4602B080BDC046E00B0020AC
S214004C800000FF0380B582B000AF0200FB1D1A7063
S214004C90FB1D1B78082B44D89A00254BD3181B689D
S214004CA09F46244A234B1B7DDBB202210B43DBB21B
S214004CB01375002338E0204B1F4A926902210A43ED
S214004CC09A6130E01B4A1B4B1B8A9BB202210B43A6
S214004CD09BB2138227E0184B174A526902210A43F7
S214004CE05A6120E0154B1B6802221A43134B1A60C8
S214004CF0134B984717E00F4A0E492823CB5CDBB2CC
S214004D0002210B43D9B22823D154C046094A38237E
S214004D10D35CDBB21A0002231340F7D103E0002372
S214004D2002E0172300E000231800BD4602B080BD55
S214004D3040AC0200000C004000100040E00B0020D9
S214004D402D49000080B582B000AF0200FB1D1A702E
S214004D50FB1D1B78082B3CD89A00214BD3181B68E8
S214004D609F46204A1F4B1B7DDBB202218B43DBB2E2
S214004D70137530E01C4B1C4A926902218A439A61E3
S214004D8029E0184A174B1B8A9BB202218B439BB221
S214004D90138220E0144B144A526902218A435A6156
S214004DA019E0124B1B68022293431A000F4B1A603D
S214004DB00C4A0E4B1B689BB213830CE0094A094948
S214004DC02823CB5CDBB202218B43D9B22823D154F3
S214004DD001E0172300E000231800BD4602B080BDA6
S214004DE064AC0200000C004000100040E00B002005
S214004DF080B584B000AF0200FB1D1A700023FB6074
S214004E00FB1D1B78082B4FD89A002A4BD3181B681B
S214004E109F461023FB60284BDB68FA681A40FB6845
S214004E20D31A5A425341DBB23FE00223FB60234BC6
S214004E30DB68FA681A40FB68D31A5A425341DBB261
S214004E4033E00123FB601C4BDB68FA681A40FB6802
S214004E50D31A5A425341DBB227E00123FB60174BBB
S214004E60DB68FA681A40FB68D31A5A425341DBB231
S214004E701BE0D0231B01FB600F4BDB68FA681A406F
S214004E80FB68D31A5A425341DBB20EE00A4A3C236F
S214004E90D35CDBB21A0003231340033B5A42534150
S214004EA0DBB202E0012300E000231800BD4604B098
S214004EB080BDC04688AC0200000C004000100040D8
S214004EC080B5AAB000AF914B802252009A60904BFA
S214004ED003229A6002208F4B984702208E4B9847F9
S214004EE09423FB1818008D4B98479423FB188022B8
S214004EF012025A609423FB1800221A709423FB189F
S214004F0004225A709423FB1800229A709423FB18EC
S214004F100122DA709423FB1800225A729423FB189D
S214004F2000221A729423FB1818007D4B9847052020
S214004F307C4B9847C04605207B4B984703001A00D9
S214004F4001235340DBB2002BF5D1784B98478023E2
S214004F50FB181800764B98478023FB1804221A701B
S214004F608023FB1800225A708023FB1800229A70B8
S214004F70704B1B689B0EA422BA181360A423FB1860
S214004F801B683F2B03D11F23A422BA181360A42347
S214004F90FB181B68DAB28023FB189A728023FB1872
S214004FA000229A808023FB1800225A728023FB1866
S214004FB000221A728023FB180022DA808023FB1856
S214004FC0B722D2005A828023FB1807229A738023C6
S214004FD0FB183F221A828023FB181800564B98476E
S214004FE0564B98476823FB181800554B984768237C
S214004FF0FB1805221A706823FB1801225A606823E2
S214005000FB1801221A726823FB1800225A726823C2
S214005010FB18190001204B4B984701204A4B984734
S2140050205C23FB181800464B98475C23FB180622A7
S2140050301A705C23FB1805225A605C23FB180022BA
S2140050401A725C23FB1800225A725C23FB181900A4
S21400505002203C4B984702203B4B98471023FB18F6
S21400506018003A4B98471023FB1801221A70102399
S214005070FB1819000020364B98470020354B984700
S2140050800720284B9847C0460720274B9847030021
S2140050901A0001235340DBB2002BF5D100202E4B23
S2140050A0984700202D4B984700202D4B984700200E
S2140050B02C4B98473B1D1800214B98473B1D072259
S2140050C01A703B1D06225A603B1D00221A723B1DB9
S2140050D000225A723B1D190000201A4B98470020E8
S2140050E0194B9847204B98470300A022BA18136024
S2140050F0A023FB181B681D4A934202D80020064BCB
S2140051009847C046BD462AB080BDC046000C004049
S21400511000140040E1470000154800006946000002
S214005120B14A0000854C0000F14D00008D4800009B
S214005130CD46000020608000AD4B000051520000BC
S214005140254600008152000091530000534600009F
S214005150AD540000ED540000894700006147000090
S2140051603947000025470000B1470000001BB70084
S21400517080B582B000AF02003960FB1D1A70FB1DBF
S2140051801B78042B27D89A00164BD3181B689F460B
S214005190154B154A51693A680A435A611DE0124B8D
S2140051A0114A91693A680A439A6116E00E4B0E4A14
S2140051B0D1693A680A43DA610FE00B4B0A4A116A72
S2140051C03A680A431A6208E0074B074A516A3A6887
S2140051D00A435A6201E0172300E000231800BD4688
S2140051E002B080BDACAC02000004004080B500AF49
S2140051F0024B9847C046BD4680BDC046010200002F
S21400520080B500AF024B9847C046BD4680BDC0463D
S2140052105502000080B582B000AF0200FB1D1A7078
S214005220094B5B68FA1D1278012191400A00920032
S2140052301340064A134001D0012300E00023180063
S214005240BD4602B080BDC04600180040FC07000006
S21400525080B500AF40210020074B9847074B01223E
S2140052601A70C046054B1B78DBB21A0001231340A8
S214005270F8D1C046BD4680BD715100000018004000
S21400528080B586B000AF02003960FB1D1A703B681F
S2140052901B787B613B685B78002B04D07B6980229F
S2140052A0D20013437B613B685B7A002B04D07B699A
S2140052B08022120113437B613B685B68012B2CD96B
S2140052C03B685A683B685B68013B13401AD1002371
S2140052D03B610223FB6005E03B6901333B61FB68F1
S2140052E05B00FB603B685A68FB689A42F4D83B69EF
S2140052F01B047A6913437B617B6980225201134346
S2140053007B610AE03B685B681B047A6913437B6138
S2140053107B698022920013437B613B681B7A002BDB
S21400532004D07B698022920113437B61C046FB1D3B
S2140053301B781800124B9847031EF8D1114B98475C
S2140053401148FB1D1B781049FA1D1278083292008E
S21400535051588022520011407A690A4308339B0054
S2140053601A50C046FB1D1B781800054B9847031EB5
S214005370F8D1064B9847C046BD4606B080BDC0462D
S21400538015520000ED5100000018004001520000C8
S21400539080B582B000AF0200FB1D1A70C046FB1D30
S2140053A01B7818000D4B9847031EF8D10C4B9847F6
S2140053B00C48FB1D1B780B49FA1D12780832920028
S2140053C05258802149000A4308339B001A50064B66
S2140053D09847C046BD4602B080BDC0461552000084
S2140053E0ED510000001800400152000080B586B064
S2140053F000AF0200FB1D1A70C046FB1D1B7818008C
S214005400244B9847031EF8D1234B9847234AFB1D8D
S2140054101B7808339B009B581B071B0FDBB218003A
S2140054201F4B984703007B611C4AFB1D1B78083303
S2140054309B009B58DB04DB0FDAB21323FB181A70B1
S214005440164AFB1D1B7808339B009B581B0C9BB20F
S214005450FB60144B98471323FB181B78002B09D1CD
S214005460FB68012B06D9104BF9687869984703004A
S2140054707B610AE01323FB181B78002B05D0FB6822
S21400548001337A69DA4013007B617B691800BD46F8
S21400549006B080BD15520000ED5100000018004017
S2140054A071490000015200006910020080B582B008
S2140054B000AF02003960FB1D1A70FB1D1B78180038
S2140054C0084B98470849FB1D1B783A68127810006D
S2140054D00F22024020339B005A50C046BD4602B001
S2140054E080BDC046455500000018004080B582B01B
S2140054F000AF0200FB1D1A700F4B98470F49FB1DAB
S2140055001B780E48FA1D127820329200125840205E
S214005510024320339B005A50C046084AFB1D1B78A6
S21400552020339B009B5840221340F6D0044B9847EC
S214005530C046BD4602B080BDED51000000180040D8
S2140055400152000080B582B000AF0200FB1D1A7049
S2140055500F4B98470F49FB1D1B780E48FA1D127813
S2140055602032920012584020824320339B005A502B
S214005570C046084AFB1D1B7820339B009B584022E0
S2140055801340F6D1044B9847C046BD4602B080BDD6
S214005590ED510000001800400152000080B584B0B4
S2140055A000AF0200FB1D1A700D4B98470D4AFB1DFD
S2140055B01B7820339B009B581B071B0FDAB20F2368
S2140055C0FB181A70084B98470F23FB181B78180017
S2140055D0064B984703001800BD4604B080BDC04681
S2140055E0ED5100000018004001520000ED5300008D
S2140055F080B584B000AF0200FB1D1A700F23FB18A5
S214005600FA1D1278D2091A700E23FB18FA1D1278AA
S21400561052091A700D4BBB600F23FB181B78002B2A
S2140056200FD10F23FB181B789B0010229446BC4416
S2140056306344083B1A680E23FB181B78DB01D3185B
S21400564000E000231800BD4604B080BD00280040DE
S21400565080B588B000AFF860B9607A600023FB615F
S2140056607B68DB7801225340DBB2002B35D07B68A9
S2140056701B78802B0BD0FB69802252021343FB6100
S2140056807B681B781B061A00FB691343FB617B686B
S2140056905B78002B03D07B685B78022B10D1FB690C
S2140056A0802292021343FB617B689B78002B04D018
S2140056B0FB698022D2021343FB61FB68BA685A601A
S2140056C07B685B78012B03D07B685B78022B07D165
S2140056D0FB69224A1340FB6102E0FB68BA685A6025
S2140056E0BB681B041B0CBB61BB681B0C7B61BA69E7
S2140056F0FB691343A022D2051A43FB689A627A69B3
S214005700FB691343D02212061A43FB689A627B6831
S214005710DB7801225340DBB2002B1AD0FA698023D3
S214005720DB0213400AD07B689B78012B03D1FB6811
S214005730BA689A6102E0FB68BA685A617B685B786F
S214005740012B03D07B685B78022B02D1FB68BA681A
S2140057509A60C046BD4608B080BDC046FFFFFBFF4E
S21400576080B584B000AF02003960FB1D1A70FB1DC7
S2140057701B7818000A4B98470300FB60FB1D1B783C
S2140057801F22134001229A401300BB603A68B96892
S214005790FB681800034B9847C046BD4604B080BD62
S2140057A0F15500005156000080B500AFC046BD461A
S2140057B080BD000080B500AF064B9847064B984763
S2140057C0064B9847064B9847064B9847C046BD463B
S2140057D080BDC046C14E000091030000A9570000DE
S2140057E085160000A957000080B584B000AFF860A9
S2140057F0B960FB1D1A70FB1D1A78FB680232920016
S214005800B968D150FB1D1B78022B07D1FB681B7EA5
S21400581010221343DAB2FB681A7619E0FB1D1B78D8
S214005820032B07D1FB681B7E20221343DAB2FB68EA
S2140058301A760DE0FB681B7E5AB2FB1D1B78012111
S21400584099400B005BB213435BB2DAB2FB681A7680
S21400585000231800BD4604B080BD000080B500AF30
S2140058600020024B9847C046BD4680BDC158000088
S21400587080B500AF0120024B9847C046BD4680BDAC
S214005880C158000080B500AF0220024B9847C046C2
S214005890BD4680BDC158000080B500AF0320024B56
S2140058A09847C046BD4680BDC158000080B500AFD1
S2140058B00420024B9847C046BD4680BDC158000034
